{
  "_format": "hh-sol-artifact-1",
  "contractName": "Staking",
  "sourceName": "contracts/Staking.sol",
  "abi": [
    {
      "inputs": [],
      "stateMutability": "payable",
      "type": "constructor"
    },
    {
      "inputs": [],
      "name": "admin",
      "outputs": [
        {
          "internalType": "address",
          "name": "",
          "type": "address"
        }
      ],
      "stateMutability": "view",
      "type": "function"
    },
    {
      "inputs": [
        {
          "internalType": "uint256",
          "name": "_id",
          "type": "uint256"
        },
        {
          "internalType": "uint256",
          "name": "_newUnlockPeriod",
          "type": "uint256"
        }
      ],
      "name": "changeUnlockPeriod",
      "outputs": [],
      "stateMutability": "nonpayable",
      "type": "function"
    },
    {
      "inputs": [
        {
          "internalType": "uint256",
          "name": "_numOfDays",
          "type": "uint256"
        }
      ],
      "name": "getInterestRate",
      "outputs": [
        {
          "internalType": "uint256",
          "name": "",
          "type": "uint256"
        }
      ],
      "stateMutability": "view",
      "type": "function"
    },
    {
      "inputs": [],
      "name": "getLockperiods",
      "outputs": [
        {
          "internalType": "uint256[]",
          "name": "",
          "type": "uint256[]"
        }
      ],
      "stateMutability": "view",
      "type": "function"
    },
    {
      "inputs": [
        {
          "internalType": "address",
          "name": "_address",
          "type": "address"
        }
      ],
      "name": "getStakerIdsByAddresses",
      "outputs": [
        {
          "internalType": "uint256[]",
          "name": "",
          "type": "uint256[]"
        }
      ],
      "stateMutability": "view",
      "type": "function"
    },
    {
      "inputs": [
        {
          "internalType": "uint256",
          "name": "_stakerId",
          "type": "uint256"
        }
      ],
      "name": "getStakersById",
      "outputs": [
        {
          "components": [
            {
              "internalType": "uint256",
              "name": "stakerId",
              "type": "uint256"
            },
            {
              "internalType": "address",
              "name": "stakerAddress",
              "type": "address"
            },
            {
              "internalType": "uint256",
              "name": "dateCreated",
              "type": "uint256"
            },
            {
              "internalType": "uint256",
              "name": "dateUnlocked",
              "type": "uint256"
            },
            {
              "internalType": "uint256",
              "name": "interestPercentage",
              "type": "uint256"
            },
            {
              "internalType": "uint256",
              "name": "amountStaked",
              "type": "uint256"
            },
            {
              "internalType": "uint256",
              "name": "interest",
              "type": "uint256"
            },
            {
              "internalType": "bool",
              "name": "open",
              "type": "bool"
            }
          ],
          "internalType": "struct Staking.Stakers",
          "name": "",
          "type": "tuple"
        }
      ],
      "stateMutability": "view",
      "type": "function"
    },
    {
      "inputs": [
        {
          "internalType": "uint256",
          "name": "",
          "type": "uint256"
        }
      ],
      "name": "levels",
      "outputs": [
        {
          "internalType": "uint256",
          "name": "",
          "type": "uint256"
        }
      ],
      "stateMutability": "view",
      "type": "function"
    },
    {
      "inputs": [
        {
          "internalType": "uint256",
          "name": "",
          "type": "uint256"
        }
      ],
      "name": "lockPeriods",
      "outputs": [
        {
          "internalType": "uint256",
          "name": "",
          "type": "uint256"
        }
      ],
      "stateMutability": "view",
      "type": "function"
    },
    {
      "inputs": [
        {
          "internalType": "uint256",
          "name": "_numOfDays",
          "type": "uint256"
        }
      ],
      "name": "stakeMatic",
      "outputs": [],
      "stateMutability": "payable",
      "type": "function"
    },
    {
      "inputs": [
        {
          "internalType": "address",
          "name": "",
          "type": "address"
        },
        {
          "internalType": "uint256",
          "name": "",
          "type": "uint256"
        }
      ],
      "name": "stakerIdsByAddress",
      "outputs": [
        {
          "internalType": "uint256",
          "name": "",
          "type": "uint256"
        }
      ],
      "stateMutability": "view",
      "type": "function"
    },
    {
      "inputs": [
        {
          "internalType": "uint256",
          "name": "",
          "type": "uint256"
        }
      ],
      "name": "stakers",
      "outputs": [
        {
          "internalType": "uint256",
          "name": "stakerId",
          "type": "uint256"
        },
        {
          "internalType": "address",
          "name": "stakerAddress",
          "type": "address"
        },
        {
          "internalType": "uint256",
          "name": "dateCreated",
          "type": "uint256"
        },
        {
          "internalType": "uint256",
          "name": "dateUnlocked",
          "type": "uint256"
        },
        {
          "internalType": "uint256",
          "name": "interestPercentage",
          "type": "uint256"
        },
        {
          "internalType": "uint256",
          "name": "amountStaked",
          "type": "uint256"
        },
        {
          "internalType": "uint256",
          "name": "interest",
          "type": "uint256"
        },
        {
          "internalType": "bool",
          "name": "open",
          "type": "bool"
        }
      ],
      "stateMutability": "view",
      "type": "function"
    },
    {
      "inputs": [],
      "name": "totalStakers",
      "outputs": [
        {
          "internalType": "uint256",
          "name": "",
          "type": "uint256"
        }
      ],
      "stateMutability": "view",
      "type": "function"
    },
    {
      "inputs": [
        {
          "internalType": "uint256",
          "name": "_numOfDays",
          "type": "uint256"
        },
        {
          "internalType": "uint256",
          "name": "_interest",
          "type": "uint256"
        }
      ],
      "name": "updateLockPeriod",
      "outputs": [],
      "stateMutability": "nonpayable",
      "type": "function"
    },
    {
      "inputs": [
        {
          "internalType": "uint256",
          "name": "_id",
          "type": "uint256"
        }
      ],
      "name": "withdrawMatic",
      "outputs": [],
      "stateMutability": "nonpayable",
      "type": "function"
    }
  ],
  "bytecode": "0x6080604052336000806101000a81548173ffffffffffffffffffffffffffffffffffffffff021916908373ffffffffffffffffffffffffffffffffffffffff1602179055506000600981905550610258600c6000601e8152602001908152602001600020819055506103e8600c6000605a815260200190815260200160002081905550610578600c600060b4815260200190815260200160002081905550600d601e9080600181540180825580915050600190039060005260206000200160009091909190915055600d605a9080600181540180825580915050600190039060005260206000200160009091909190915055600d60b490806001815401808255809150506001900390600052602060002001600090919091909150556115118061012a6000396000f3fe6080604052600436106100dd5760003560e01c8063d73a84e91161007f578063f8a2639c11610059578063f8a2639c146102e6578063f9d4e87114610323578063fbb5f24b1461034c578063fd5e6dd114610368576100dd565b8063d73a84e914610269578063e8a379b214610292578063f851a440146102bb576100dd565b806386989038116100bb5780638698903814610199578063b05e148d146101c4578063b2596a6714610201578063c7b0fc6a1461023e576100dd565b80630c196a74146100e2578063105c2c5c1461011f5780634c8f2a781461015c575b600080fd5b3480156100ee57600080fd5b5061010960048036038101906101049190610dea565b6103ac565b60405161011691906111ef565b60405180910390f35b34801561012b57600080fd5b5061014660048036038101906101419190610dea565b6103c9565b60405161015391906111d3565b60405180910390f35b34801561016857600080fd5b50610183600480360381019061017e9190610dea565b6104a4565b60405161019091906111ef565b60405180910390f35b3480156101a557600080fd5b506101ae6104c8565b6040516101bb91906111ef565b60405180910390f35b3480156101d057600080fd5b506101eb60048036038101906101e69190610dae565b6104ce565b6040516101f891906111ef565b60405180910390f35b34801561020d57600080fd5b5061022860048036038101906102239190610dea565b6104ff565b60405161023591906111ef565b60405180910390f35b34801561024a57600080fd5b50610253610517565b6040516102609190611131565b60405180910390f35b34801561027557600080fd5b50610290600480360381019061028b9190610e13565b61056f565b005b34801561029e57600080fd5b506102b960048036038101906102b49190610dea565b610642565b005b3480156102c757600080fd5b506102d06108cb565b6040516102dd9190611116565b60405180910390f35b3480156102f257600080fd5b5061030d60048036038101906103089190610d85565b6108ef565b60405161031a9190611131565b60405180910390f35b34801561032f57600080fd5b5061034a60048036038101906103459190610e13565b610986565b005b61036660048036038101906103619190610dea565b610a33565b005b34801561037457600080fd5b5061038f600480360381019061038a9190610dea565b610c65565b6040516103a398979695949392919061120a565b60405180910390f35b6000600c6000838152602001908152602001600020549050919050565b6103d1610cfe565b600a600083815260200190815260200160002060405180610100016040529081600082015481526020016001820160009054906101000a900473ffffffffffffffffffffffffffffffffffffffff1673ffffffffffffffffffffffffffffffffffffffff1673ffffffffffffffffffffffffffffffffffffffff16815260200160028201548152602001600382015481526020016004820154815260200160058201548152602001600682015481526020016007820160009054906101000a900460ff1615151515815250509050919050565b600d81815481106104b457600080fd5b906000526020600020016000915090505481565b60095481565b600b60205281600052604060002081815481106104ea57600080fd5b90600052602060002001600091509150505481565b600c6020528060005260406000206000915090505481565b6060600d80548060200260200160405190810160405280929190818152602001828054801561056557602002820191906000526020600020905b815481526020019060010190808311610551575b5050505050905090565b3373ffffffffffffffffffffffffffffffffffffffff1660008054906101000a900473ffffffffffffffffffffffffffffffffffffffff1673ffffffffffffffffffffffffffffffffffffffff16146105fd576040517f08c379a00000000000000000000000000000000000000000000000000000000081526004016105f490611173565b60405180910390fd5b80600c600084815260200190815260200160002081905550600d8290806001815401808255809150506001900390600052602060002001600090919091909150555050565b3373ffffffffffffffffffffffffffffffffffffffff16600a600083815260200190815260200160002060010160009054906101000a900473ffffffffffffffffffffffffffffffffffffffff1673ffffffffffffffffffffffffffffffffffffffff16146106e6576040517f08c379a00000000000000000000000000000000000000000000000000000000081526004016106dd90611153565b60405180910390fd5b60011515600a600083815260200190815260200160002060070160009054906101000a900460ff16151514610750576040517f08c379a000000000000000000000000000000000000000000000000000000000815260040161074790611193565b60405180910390fd5b6000600a600083815260200190815260200160002060070160006101000a81548160ff021916908315150217905550600a600082815260200190815260200160002060030154421115610848576000600a600083815260200190815260200160002060060154600a6000848152602001908152602001600020600501546107d791906112dd565b90503373ffffffffffffffffffffffffffffffffffffffff16816040516107fd90611101565b60006040518083038185875af1925050503d806000811461083a576040519150601f19603f3d011682016040523d82523d6000602084013e61083f565b606091505b505050506108c8565b3373ffffffffffffffffffffffffffffffffffffffff16600a60008381526020019081526020016000206005015460405161088290611101565b60006040518083038185875af1925050503d80600081146108bf576040519150601f19603f3d011682016040523d82523d6000602084013e6108c4565b606091505b5050505b50565b60008054906101000a900473ffffffffffffffffffffffffffffffffffffffff1681565b6060600b60008373ffffffffffffffffffffffffffffffffffffffff1673ffffffffffffffffffffffffffffffffffffffff16815260200190815260200160002080548060200260200160405190810160405280929190818152602001828054801561097a57602002820191906000526020600020905b815481526020019060010190808311610966575b50505050509050919050565b3373ffffffffffffffffffffffffffffffffffffffff1660008054906101000a900473ffffffffffffffffffffffffffffffffffffffff1673ffffffffffffffffffffffffffffffffffffffff1614610a14576040517f08c379a0000000000000000000000000000000000000000000000000000000008152600401610a0b90611173565b60405180910390fd5b80600a6000848152602001908152602001600020600301819055505050565b6000600c60008381526020019081526020016000205411610a89576040517f08c379a0000000000000000000000000000000000000000000000000000000008152600401610a80906111b3565b60405180910390fd5b60405180610100016040528060095481526020013373ffffffffffffffffffffffffffffffffffffffff1681526020014281526020016201518083610ace9190611364565b42610ad991906112dd565b8152602001600c6000848152602001908152602001600020548152602001348152602001610b1b600c6000858152602001908152602001600020548434610cda565b815260200160011515815250600a600060095481526020019081526020016000206000820151816000015560208201518160010160006101000a81548173ffffffffffffffffffffffffffffffffffffffff021916908373ffffffffffffffffffffffffffffffffffffffff16021790555060408201518160020155606082015181600301556080820151816004015560a0820151816005015560c0820151816006015560e08201518160070160006101000a81548160ff021916908315150217905550905050600b60003373ffffffffffffffffffffffffffffffffffffffff1673ffffffffffffffffffffffffffffffffffffffff168152602001908152602001600020600954908060018154018082558091505060019003906000526020600020016000909190919091505560096000815480929190610c5d90611406565b919050555050565b600a6020528060005260406000206000915090508060000154908060010160009054906101000a900473ffffffffffffffffffffffffffffffffffffffff16908060020154908060030154908060040154908060050154908060060154908060070160009054906101000a900460ff16905088565b60006127108285610ceb9190611364565b610cf59190611333565b90509392505050565b60405180610100016040528060008152602001600073ffffffffffffffffffffffffffffffffffffffff16815260200160008152602001600081526020016000815260200160008152602001600081526020016000151581525090565b600081359050610d6a816114ad565b92915050565b600081359050610d7f816114c4565b92915050565b600060208284031215610d9757600080fd5b6000610da584828501610d5b565b91505092915050565b60008060408385031215610dc157600080fd5b6000610dcf85828601610d5b565b9250506020610de085828601610d70565b9150509250929050565b600060208284031215610dfc57600080fd5b6000610e0a84828501610d70565b91505092915050565b60008060408385031215610e2657600080fd5b6000610e3485828601610d70565b9250506020610e4585828601610d70565b9150509250929050565b6000610e5b83836110e3565b60208301905092915050565b610e70816113be565b82525050565b610e7f816113be565b82525050565b6000610e9082611298565b610e9a81856112b0565b9350610ea583611288565b8060005b83811015610ed6578151610ebd8882610e4f565b9750610ec8836112a3565b925050600181019050610ea9565b5085935050505092915050565b610eec816113d0565b82525050565b610efb816113d0565b82525050565b6000610f0e6016836112cc565b91507f596f7520617265206e6f7420746865207374616b6572000000000000000000006000830152602082019050919050565b6000610f4e6018836112cc565b91507f4f6e6c79206f776e65722063616e206368616e676520697400000000000000006000830152602082019050919050565b6000610f8e6017836112cc565b91507f4d6174696320616c72656164792077697468647261776e0000000000000000006000830152602082019050919050565b6000610fce602d836112cc565b91507f596f75206e65656420746f207374616b6520666f722061206c6f6e676572207060008301527f6572696f64206f662074696d65000000000000000000000000000000000000006020830152604082019050919050565b60006110346000836112c1565b9150600082019050919050565b6101008201600082015161105860008501826110e3565b50602082015161106b6020850182610e67565b50604082015161107e60408501826110e3565b50606082015161109160608501826110e3565b5060808201516110a460808501826110e3565b5060a08201516110b760a08501826110e3565b5060c08201516110ca60c08501826110e3565b5060e08201516110dd60e0850182610ee3565b50505050565b6110ec816113fc565b82525050565b6110fb816113fc565b82525050565b600061110c82611027565b9150819050919050565b600060208201905061112b6000830184610e76565b92915050565b6000602082019050818103600083015261114b8184610e85565b905092915050565b6000602082019050818103600083015261116c81610f01565b9050919050565b6000602082019050818103600083015261118c81610f41565b9050919050565b600060208201905081810360008301526111ac81610f81565b9050919050565b600060208201905081810360008301526111cc81610fc1565b9050919050565b6000610100820190506111e96000830184611041565b92915050565b600060208201905061120460008301846110f2565b92915050565b600061010082019050611220600083018b6110f2565b61122d602083018a610e76565b61123a60408301896110f2565b61124760608301886110f2565b61125460808301876110f2565b61126160a08301866110f2565b61126e60c08301856110f2565b61127b60e0830184610ef2565b9998505050505050505050565b6000819050602082019050919050565b600081519050919050565b6000602082019050919050565b600082825260208201905092915050565b600081905092915050565b600082825260208201905092915050565b60006112e8826113fc565b91506112f3836113fc565b9250827fffffffffffffffffffffffffffffffffffffffffffffffffffffffffffffffff038211156113285761132761144f565b5b828201905092915050565b600061133e826113fc565b9150611349836113fc565b9250826113595761135861147e565b5b828204905092915050565b600061136f826113fc565b915061137a836113fc565b9250817fffffffffffffffffffffffffffffffffffffffffffffffffffffffffffffffff04831182151516156113b3576113b261144f565b5b828202905092915050565b60006113c9826113dc565b9050919050565b60008115159050919050565b600073ffffffffffffffffffffffffffffffffffffffff82169050919050565b6000819050919050565b6000611411826113fc565b91507fffffffffffffffffffffffffffffffffffffffffffffffffffffffffffffffff8214156114445761144361144f565b5b600182019050919050565b7f4e487b7100000000000000000000000000000000000000000000000000000000600052601160045260246000fd5b7f4e487b7100000000000000000000000000000000000000000000000000000000600052601260045260246000fd5b6114b6816113be565b81146114c157600080fd5b50565b6114cd816113fc565b81146114d857600080fd5b5056fea264697066735822122037e6bbbee58e4579ac7f5e11c980d8b24522ac66a6a16f51db10f5ce7b35e78164736f6c63430008000033",
  "linkReferences": {},
  "deployedLinkReferences": {}
}